:100000000C9417010C9438010C9438010C943801AD
:100010000C9438010C9438010C9438010C9438017C
:100020000C9438010C9438010C9438010C9438016C
:100030000C9438010C9438010C9438010C9438015C
:100040000C9438010C9438010C9438010C9438014C
:100050000C9438010C9438010C9438010C94E5018F
:100060000C9438010C9438010C9438010C9438012C
:100070000C9438010C9438010C9438010C9438011C
:100080000C9438010C9438010C9438010C9438010C
:100090000C9438010C9438010C9438010C943801FC
:1000A0000C9438010C9438010C9438010C943801EC
:1000B0000C9438010C9438010C9438010C943801DC
:1000C0000C9438010C9438010C9438010C943801CC
:1000D0000C9438010C9438010C9438010C943801BC
:1000E0000C9438010C94CD010C94DB010C94B501F7
:1000F0000C94DF010C94A4010C94D1010C9489019F
:100100000C94C3010C94C7010C94AC010C94A8018D
:100110000C94A0010C948E010C94AF010C94B901C5
:100120000C94BF010C94D50100000A0B02090C0DC0
:100130000E0807030401000000000000000000009A
:1001400000000000000000000000000000000000AF
:10015000000000001211100000000000000000006C
:10016000000000000000000000000000000000008F
:100170002200250028002B002E003100340002014F
:100180000000050108010B010000210024002700E8
:100190002A002D0030003300010100000401070196
:1001A0000A010505050507050808080802020202FC
:1001B0000A0A080804040404010101010101010103
:1001C0000303030303030303040707070C0C0C0CCE
:1001D0000C0C0C0C020202020606060606060606B7
:1001E0000B0B0B0B0B0B0B0B010210202008081044
:1001F0002040102040800201020108040201010297
:10020000040810204080804020100804020180046F
:1002100002018040201008040201080402010102CA
:10022000040810204080010204081020408011249E
:100230001FBECFEFD1E2DEBFCDBF00E00CBF12E0AA
:10024000A0E0B2E0EEE9F9E000E00BBF02C00790E9
:100250000D92A431B107D9F722E0A4E1B2E001C0C8
:100260001D92A332B207E1F70E942F020C94CD0435
:100270000C94000090E0FC01E851FE4F24918E5553
:100280009E4FFC018491882399F090E0880F991F7C
:10029000FC01E857FE4FA591B491FC01E259FE4FD5
:1002A000859194918FB7F894EC91E22BEC938FBFEA
:1002B0000895282F30E0F901E85DFE4F9491F9018F
:1002C000E851FE4F44912E553E4FF90124912223CF
:1002D00009F435C0992311F191509231F8F4E92FC6
:1002E000F0E08827E958FE4F8F4F0C94C504A80111
:1002F000AC018901A001A4018E01AF01B501B901D2
:10030000BF01C301C701CD01D1018E01D501DB01C0
:10031000DF01809180008F7780938000E22FF0E0F2
:10032000EE0FFF1FE259FE4FA591B4918FB7F894DD
:10033000EC91611148C040954E234C938FBF0895B6
:10034000809180008F7DE8CF80918000877FE4CF0F
:1003500084B58F7784BDE2CF84B58F7DFBCF80914C
:10036000B0008F778093B000D9CF8091B0008F7D9F
:10037000F9CF809190008F7780939000CFCF8091BC
:1003800090008F7DF9CF80919000877FF5CF80918D
:10039000A0008F778093A000C1CF8091A0008F7DB7
:1003A000F9CF8091A000877FF5CF809120018F77D2
:1003B00080932001B3CF809120018F7DF9CF809170
:1003C0002001877FF5CF4E2BB8CF1F920F920FB62B
:1003D0000F9211242F933F938F939F93AF93BF93CB
:1003E00080911F0290912002A0912102B0912202DF
:1003F00030911E0223E0230F2D3758F50196A11DE1
:10040000B11D20931E0280931F0290932002A0939F
:100410002102B093220280911A0290911B02A091B6
:100420001C02B0911D020196A11DB11D80931A02FC
:1004300090931B02A0931C02B0931D02BF91AF9139
:100440009F918F913F912F910F900FBE0F901F9012
:10045000189526E8230F0296A11DB11DD2CF7894DE
:1004600084B5826084BD84B5816084BD85B58260B9
:1004700085BD85B5816085BD80916E00816080936A
:100480006E001092810080918100826080938100D3
:1004900080918100816080938100809180008160E3
:1004A000809380008091B10084608093B10080913E
:1004B000B00081608093B000809191008260809351
:1004C00091008091910081608093910080919000D3
:1004D0008160809390008091A10082608093A10050
:1004E0008091A10081608093A1008091A000816033
:1004F0008093A000809121018260809321018091EE
:10050000210181608093210180912001816080938D
:10051000200180917A00846080937A0080917A0033
:10052000826080937A0080917A00816080937A0063
:1005300080917A00806880937A001092C100C0E0B8
:10054000D2E0888122960E943A0122E0C831D20787
:10055000C1F78DE00E943A0190E4992E07E61CE075
:1005600020E0E22E20E0F22E609118028DE00E9441
:10057000590180917B00877F80937B0090927C0063
:1005800080917A00806480937A0080917A0086FD61
:10059000FCCFC0917800D091790028E431EE4AE791
:1005A0005FE36091140270911502809116029091A0
:1005B00017020E9458042B013C01BE01DD0F880B7D
:1005C000990B0E94CC0320E037ED43EA5CE30E94E4
:1005D00058049B01AC01C301B2010E94280360933F
:1005E00014027093150280931602909317020E94D2
:1005F00094036B0180E0A82E82E0B82ED0E0C0E02A
:10060000F5018081F2E0AF0EB11CB6010C2E02C0E4
:10061000759567950A94E2F761700E9459012196D9
:10062000CA30D10569F78091180290911902E1E072
:100630008E279093190280931802C8010197F1F751
:10064000E114F10409F490CF0E9400008DCF5058BE
:10065000BB27AA270E943F030C941E040E9410048B
:1006600038F00E94170420F039F49F3F19F426F463
:100670000C940D040EF4E095E7FB0C940704E92FAD
:100680000E942F0458F3BA1762077307840795076F
:1006900020F079F4A6F50C9451040EF4E0950B2E9D
:1006A000BA2FA02D0B01B90190010C01CA01A001C4
:1006B0001124FF27591B99F0593F50F4503E68F11F
:1006C0001A16F040A22F232F342F4427585FF3CF60
:1006D000469537952795A795F0405395C9F77EF431
:1006E0001F16BA0B620B730B840BBAF09150A1F07A
:1006F000FF0FBB1F661F771F881FC2F70EC0BA0F00
:10070000621F731F841F48F4879577956795B79587
:10071000F7959E3F08F0B0CF9395880F08F0992782
:10072000EE0F9795879508950E949B036894B111E9
:100730000C94520408950E94370488F09F5798F053
:10074000B92F9927B751B0F0E1F0660F771F881FD6
:10075000991F1AF0BA95C9F714C0B13091F00E94F0
:100760005104B1E008950C945104672F782F882725
:10077000B85F39F0B93FCCF3869577956795B39517
:10078000D9F73EF490958095709561957F4F8F4F86
:100790009F4F0895E89409C097FB3EF4909580958B
:1007A000709561957F4F8F4F9F4F9923A9F0F92F37
:1007B00096E9BB279395F695879577956795B795B5
:1007C000F111F8CFFAF4BB0F11F460FF1BC06F5F9B
:1007D0007F4F8F4F9F4F16C0882311F096E911C0AD
:1007E000772321F09EE8872F762F05C0662371F0CE
:1007F00096E8862F70E060E02AF09A95660F771FE2
:10080000881FDAF7880F9695879597F9089597F9D5
:100810009F6780E870E060E008959FEF80EC0895A6
:1008200000240A94161617061806090608950024CF
:100830000A9412161306140605060895092E039449
:10084000000C11F4882352F0BB0F40F4BF2B11F4BD
:1008500060FF04C06F5F7F4F8F4F9F4F089557FD1C
:100860009058440F551F59F05F3F71F04795880F1E
:1008700097FB991F61F09F3F79F0879508951216B5
:1008800013061406551FF2CF4695F1DF08C0161661
:1008900017061806991FF1CF869571056105089412
:1008A0000895E894BB2766277727CB0197F9089529
:1008B0000E946B040C941E040E94100438F00E94E5
:1008C000170420F0952311F00C9407040C940D04E8
:1008D00011240C9452040E942F0470F3959FC1F3CD
:1008E000950F50E0551F629FF001729FBB27F00DDE
:1008F000B11D639FAA27F00DB11DAA1F649F662733
:10090000B00DA11D661F829F2227B00DA11D621F81
:10091000739FB00DA11D621F839FA00D611D221F3B
:10092000749F3327A00D611D231F849F600D211D1F
:10093000822F762F6A2F11249F5750409AF0F1F0A2
:1009400088234AF0EE0FFF1FBB1F661F771F881F0B
:1009500091505040A9F79E3F510580F00C94070438
:100960000C9452045F3FE4F3983ED4F38695779558
:100970006795B795F795E7959F5FC1F7FE2B880FB1
:10098000911D9695879597F90895EE0FFF1F881F83
:0E0990008BBF0790F691E02D1994F894FFCFDD
:10099E001F00210023002500270029002B002D0019
:0409AE002F003100E5
:00000001FF
