:100000000C945D000C9485000C9485000C94850084
:100010000C9485000C9485000C9485000C9485004C
:100020000C9485000C9485000C9485000C9485003C
:100030000C9485000C9485000C9485000C9485002C
:100040000C94B9010C9485000C9429020C940302C1
:100050000C9485000C9485000C9485000C9485000C
:100060000C9485000C9485000000000024002700FB
:100070002A0000000000250028002B0004040404CE
:100080000404040402020202020203030303030342
:10009000010204081020408001020408102001021F
:1000A00004081020000000080002010000030407FB
:1000B0000000000000000000D20411241FBECFEF9A
:1000C000D8E0DEBFCDBF11E0A0E0B1E0EAE4FDE0A2
:1000D00002C005900D92A632B107D9F721E0A6E241
:1000E000B1E001C01D92AC3EB207E1F710E0CDE5F2
:1000F000D0E004C02197FE010E949D06CC35D107B7
:10010000C9F70E945B020C94A3060C9400003FB751
:10011000F8948091E8019091E901A091EA01B091F1
:10012000EB0126B5A89B05C02F3F19F00196A11D34
:10013000B11D3FBFBA2FA92F982F8827BC01CD0131
:10014000620F711D811D911D42E0660F771F881F90
:10015000991F4A95D1F70895AF92BF92CF92DF923F
:10016000EF92FF920F931F93CF93DF936C017B016C
:100170008B01040F151FEB015E01AE18BF08C017FD
:10018000D10759F06991D601ED91FC910190F08170
:10019000E02DC6010995892B79F7C501DF91CF9133
:1001A0001F910F91FF90EF90DF90CF90BF90AF9095
:1001B0000895FC01538D448D252F30E0842F90E06D
:1001C000821B930B541710F0CF9608950197089552
:1001D000FC01918D828D981761F0A28DAE0FBF2F1B
:1001E000B11D5D968C91928D9F5F9F73928F90E071
:1001F00008958FEF9FEF0895FC01918D828D9817E0
:1002000031F0828DE80FF11D858D90E008958FEF1C
:100210009FEF0895FC01918D228D892F90E0805CE5
:100220009F4F821B91098F739927089586E291E071
:100230000E940A0121E0892B09F420E0822F089511
:1002400080E090E0892B29F00E94160181110C9426
:1002500000000895FC01A48DA80FB92FB11DA35A69
:10026000BF4F2C91848D90E001968F739927848FD6
:10027000A689B7892C93A089B1898C9183708064F9
:100280008C93938D848D981306C00288F389E02D9A
:1002900080818F7D80830895EF92FF920F931F934B
:1002A000CF93DF93EC0181E0888F9B8D8C8D981329
:1002B0001AC0E889F989808185FF15C09FB7F89435
:1002C000EE89FF896083E889F98980818370806481
:1002D00080839FBF81E090E0DF91CF911F910F91CC
:1002E000FF90EF900895F62E0B8D10E00F5F1F4FDB
:1002F0000F731127E02E8C8D8E110CC00FB607FCEA
:10030000FACFE889F989808185FFF5CFCE010E9477
:100310002A01F1CFEB8DEC0FFD2FF11DE35AFF4FBA
:10032000F0829FB7F8940B8FEA89FB898081806205
:10033000CFCFCF93DF93EC01888D8823B9F0AA89C2
:10034000BB89E889F9898C9185FD03C0808186FD90
:100350000DC00FB607FCF7CF8C9185FFF2CF8081DF
:1003600085FFEDCFCE010E942A01E9CFDF91CF9129
:1003700008951F920F920FB60F9211242F933F935F
:100380008F939F93AF93BF938091E4019091E50188
:10039000A091E601B091E7013091E30123E0230F42
:1003A0002D3758F50196A11DB11D2093E3018093CF
:1003B000E4019093E501A093E601B093E7018091F9
:1003C000E8019091E901A091EA01B091EB01019659
:1003D000A11DB11D8093E8019093E901A093EA016A
:1003E000B093EB01BF91AF919F918F913F912F916E
:1003F0000F900FBE0F901F90189526E8230F0296BE
:10040000A11DB11DD2CF1F920F920FB60F921124D2
:100410002F933F934F935F936F937F938F939F930C
:10042000AF93BF93EF93FF9386E291E00E942A017E
:10043000FF91EF91BF91AF919F918F917F916F91BC
:100440005F914F913F912F910F900FBE0F901F9092
:1004500018951F920F920FB60F9211242F938F931E
:100460009F93EF93FF93E0913601F09137018081E4
:10047000E0913C01F0913D0182FD1BC09081809193
:100480003F018F5F8F7320914001821741F0E0910F
:100490003F01F0E0EA5DFE4F958F80933F01FF91B1
:1004A000EF919F918F912F910F900FBE0F901F9002
:1004B00018958081F4CFCF93DF93CDB7DEB76097E7
:1004C0000FB6F894DEBF0FBECDBF789484B58260BE
:1004D00084BD84B5816084BD85B5826085BD85B5E8
:1004E000816085BD80916E00816080936E00109266
:1004F00081008091810082608093810080918100E1
:100500008160809381008091800081608093800071
:100510008091B10084608093B1008091B0008160CF
:100520008093B00080917A00846080937A008091FB
:100530007A00826080937A0080917A008160809353
:100540007A0080917A00806880937A001092C100CE
:10055000E0913601F091370182E08083E091320131
:10056000F09133011082E0913401F09135018FEC6C
:10057000808310923E01E0913A01F0913B0186E0C8
:100580008083E0913801F09139018081806180831E
:10059000E0913801F0913901808188608083E09199
:1005A0003801F0913901808180688083E0913801C1
:1005B000F091390180818F7D808326E231E0A2E1D4
:1005C000B1E08D919D919927FC01E057FF4F449137
:1005D00084589F4FFC0184918823A1F090E0880FFC
:1005E000991FFC01E859FF4FE590F490FC01EE588B
:1005F000FF4F859194918FB7F894F7019081942BD8
:1006000090838FBF2A173B07E1F60E948700609313
:10061000DF017093E0018093E1019093E20110E427
:1006200090E0292E90E0392E0E948700C090DF01D3
:10063000D090E001E090E101F090E201AB01BC015B
:100640004C195D096E097F0977FD7BC1D701C60191
:1006500088519C4FAF4FBF4F8093DF019093E001D3
:10066000A093E101B093E20110937C0080917A00A5
:10067000806480937A0080917A0086FDFCCF60913F
:10068000780070917900072E000C880B990B0E945E
:10069000A4056B017C012091DB013091DC014091CC
:1006A000DD015091DE0129833A834B835C834091C5
:1006B000D7015091D8016091D9017091DA014D8331
:1006C0005E836F8378878090D3019090D401A0904F
:1006D000D501B090D6016091CB017091CC01809191
:1006E000CD019091CE0169877A878B879C87809115
:1006F000C7019091C801A091C901B091CA018D872D
:100700009E87AF87B88B22EC37E54FE45BE3C701E8
:10071000B6010E9430062B013C012AEF3AE841E481
:100720005BEB69817A818B819C810E9430069B0101
:10073000AC01C301B2010E9400052B013C012AEF6C
:100740003AE841E45BEB6D817E818F8198850E9460
:1007500030069B01AC01C301B2010E9400052B01D0
:100760003C0122EC37E54FE45BE3C501B4010E9494
:1007700030069B01AC01C301B2010E9400052B01B0
:100780003C0120E030E0A9016091CF017091D001DF
:100790008091D1019091D2010E9430069B01AC0161
:1007A000C301B2010E9400052B013C012FEE3CEA7F
:1007B00049E350EC69857A858B859C850E943006DB
:1007C0009B01AC01C301B2010E94FF042B013C015B
:1007D0002BEF30E144E350E46D857E858F85988969
:1007E0000E9430069B01AC01C301B2010E94FF04CC
:1007F0002B013C0127E934E749E65FEB6091C30137
:100800007091C4018091C5019091C6010E9430068B
:100810009B01AC01C301B2010E94FF048092CF0191
:100820009092D001A092D101B092D2012D813E814F
:100830004F8158852093D3013093D4014093D50143
:100840005093D60129813A814B815C812093D70155
:100850003093D8014093D9015093DA01C092DB0163
:10086000D092DC01E092DD01F092DE012D853E8523
:100870004F8558892093C3013093C4014093C5012B
:100880005093C60129853A854B855C852093C70125
:100890003093C8014093C9015093CA016093CB01C2
:1008A0007093CC018093CD019093CE010E946C0592
:1008B000611534E0730714F06FEF73E077FF02C047
:1008C00070E060E0A2E1B1E030E020E08D919D9128
:1008D0009927FC01EC55FF4F5491FC01E057FF4F65
:1008E0004491FC01E458FF4FE491EE2321F155239C
:1008F00051F0533009F43BC080F5513009F43DC04C
:10090000523009F43EC0F0E0EE0FFF1FEE58FF4FEB
:10091000859194915FB7F894FB01022E02C0F59582
:10092000E7950A94E2F7E0FD39C0FC01F0804095BC
:100930004F2140835FBF2F5F3F4F2A30310509F0C1
:10094000C5CF2114310409F46FCE0E94160188230B
:1009500009F46ACE0E94000067CE5730A9F05830E3
:10096000C9F0543081F6809180008F7D03C0809162
:1009700080008F7780938000C6CF84B58F7784BD49
:10098000C2CF84B58F7DFBCF8091B0008F778093ED
:10099000B000B9CF8091B0008F7DF9CFFC01F0801D
:1009A0004F29C7CFE6E2F1E01382128288EE93E08E
:1009B000A0E0B0E084839583A683B78384E091E0D0
:1009C0009183808385EC90E09587848784EC90E028
:1009D0009787868780EC90E0918B808B81EC90E00C
:1009E000938B828B82EC90E0958B848B86EC90E0ED
:1009F000978B868B118E128E138E148E08955058FD
:100A0000BB27AA270E9417050C94F6050E94E8054B
:100A100038F00E94EF0520F039F49F3F19F426F4D6
:100A20000C94E5050EF4E095E7FB0C94DF05E92F47
:100A30000E94070658F3BA176207730784079507E1
:100A400020F079F4A6F50C9429060EF4E0950B2E0F
:100A5000BA2FA02D0B01B90190010C01CA01A00110
:100A60001124FF27591B99F0593F50F4503E68F16B
:100A70001A16F040A22F232F342F4427585FF3CFAC
:100A8000469537952795A795F0405395C9F77EF47D
:100A90001F16BA0B620B730B840BBAF09150A1F0C6
:100AA000FF0FBB1F661F771F881FC2F70EC0BA0F4C
:100AB000621F731F841F48F4879577956795B795D4
:100AC000F7959E3F08F0B0CF9395880F08F09927CF
:100AD000EE0F9795879508950E9473056894B1115C
:100AE0000C942A0608950E940F0688F09F5798F0EC
:100AF000B92F9927B751B0F0E1F0660F771F881F23
:100B0000991F1AF0BA95C9F714C0B13091F00E943C
:100B10002906B1E008950C942906672F782F8827BD
:100B2000B85F39F0B93FCCF3869577956795B39563
:100B3000D9F73EF490958095709561957F4F8F4FD2
:100B40009F4F0895E89409C097FB3EF490958095D7
:100B5000709561957F4F8F4F9F4F9923A9F0F92F83
:100B600096E9BB279395F695879577956795B79501
:100B7000F111F8CFFAF4BB0F11F460FF1BC06F5FE7
:100B80007F4F8F4F9F4F16C0882311F096E911C0F9
:100B9000772321F09EE8872F762F05C0662371F01A
:100BA00096E8862F70E060E02AF09A95660F771F2E
:100BB000881FDAF7880F9695879597F9089597F922
:100BC0009F6780E870E060E008959FEF80EC0895F3
:100BD00000240A941616170618060906089500241C
:100BE0000A9412161306140605060895092E039496
:100BF000000C11F4882352F0BB0F40F4BF2B11F40A
:100C000060FF04C06F5F7F4F8F4F9F4F089557FD68
:100C10009058440F551F59F05F3F71F04795880F6A
:100C200097FB991F61F09F3F79F087950895121601
:100C300013061406551FF2CF4695F1DF08C01616AD
:100C400017061806991FF1CF86957105610508945E
:100C50000895E894BB2766277727CB0197F9089575
:100C60000E9443060C94F6050E94E80538F00E94A5
:100C7000EF0520F0952311F00C94DF050C94E505A9
:100C800011240C942A060E94070670F3959FC1F365
:100C9000950F50E0551F629FF001729FBB27F00D2A
:100CA000B11D639FAA27F00DB11DAA1F649F66277F
:100CB000B00DA11D661F829F2227B00DA11D621FCE
:100CC000739FB00DA11D621F839FA00D611D221F88
:100CD000749F3327A00D611D231F849F600D211D6C
:100CE000822F762F6A2F11249F5750409AF0F1F0EF
:100CF00088234AF0EE0FFF1FBB1F661F771F881F58
:100D000091505040A9F79E3F510580F00C94DF05AB
:100D10000C942A065F3FE4F3983ED4F386957795CA
:100D20006795B795F795E7959F5FC1F7FE2B880FFD
:100D3000911D9695879597F90895EE0FFF1F0590E1
:0A0D4000F491E02D0994F894FFCF20
:100D4A00000000004C01AC00D90099010A01E8003A
:100D5A00FC0002000300040005000600070008006A
:060D6A0009000A000B0065
:00000001FF
