:100000000C946B000C9488000C9488000C9488006D
:100010000C9488000C9488000C9488000C94880040
:100020000C9488000C9488000C9488000C94880030
:100030000C9488000C949E010C9488000C94880009
:100040000C9454010C9488000C9488000C94880043
:100050000C9488000C9488000C9488000C94880000
:100060000C9488000C94880005A84CCDB2D44EB9ED
:100070003836A9020C50B9918688083CA6AAAA2A4B
:10008000BE000000803F00000000240027002A007E
:1000900000000000250028002B00040404040404D0
:1000A0000404020202020202030303030303010227
:1000B00004081020408001020408102001020408F6
:1000C00010200000000800020100000304070000E7
:1000D00000000000000011241FBECFEFD8E0DEBFFB
:1000E000CDBF11E0A0E0B1E0E6ECF9E002C0059080
:1000F0000D92A230B107D9F721E0A2E0B1E001C032
:100100001D92A431B207E1F70E94C5010C94E104ED
:100110000C940000EBECF0E02491E7EBF0E094911C
:10012000E3EAF0E0E491EE23C9F0222339F0233032
:1001300001F1A8F4213019F1223029F1F0E0EE0F9D
:10014000FF1FE057FF4FA591B4912FB7F894EC91A2
:10015000811126C090959E239C932FBF0895273030
:10016000A9F02830C9F0243049F7209180002F7D74
:1001700003C0209180002F7720938000DFCF24B52B
:100180002F7724BDDBCF24B52F7DFBCF2091B0008E
:100190002F772093B000D2CF2091B0002F7DF9CFE0
:1001A0009E2BDACF0895CF92DF92EF92FF92CF93FA
:1001B000DF9360910701709108018091090190918E
:1001C0000A010E94560320E034E244E757E40E940B
:1001D000AE0222ED33E54BEF53E40E94E4030E94AC
:1001E0005104C0910601C0900201D0900301E0903B
:1001F0000401F090050120E030E040E05FE30E9460
:10020000E4039B01AC010E94420220E030E040E8A0
:100210005FE30E94420220E030E04FEF52E40E9490
:10022000E4030E942003D0E06C1B7D0BCB01770F11
:10023000AA0BBB0B8C0D9D1DAE1DBF1D8093020133
:1002400090930301A0930401B093050180910201F2
:1002500090910301A0910401B0910501B7FD20C068
:100260008FEF8093060181E00E948A008091070150
:1002700090910801A0910901B0910A010196A11D78
:10028000B11D8093070190930801A0930901B093D9
:100290000A01DF91CF91FF90EF90DF90CF9008950A
:1002A0001092060180E0E0CF1F920F920FB60F92DE
:1002B00011242F933F938F939F93AF93BF9380917C
:1002C000100190911101A0911201B0911301309190
:1002D0000F0123E0230F2D3758F50196A11DB11D05
:1002E00020930F018093100190931101A0931201AC
:1002F000B093130180910B0190910C01A0910D011D
:10030000B0910E010196A11DB11D80930B01909338
:100310000C01A0930D01B0930E01BF91AF919F917D
:100320008F913F912F910F900FBE0F901F901895B6
:1003300026E8230F0296A11DB11DD2CF1F920F9266
:100340000FB60F9211242F933F934F935F936F93A8
:100350007F938F939F93AF93BF93EF93FF93E0911E
:100360000001F09101010995FF91EF91BF91AF91CB
:100370009F918F917F916F915F914F913F912F91BD
:100380000F900FBE0F901F901895789484B58260DF
:1003900084BD84B5816084BD85B5826085BD85B529
:1003A000816085BD80916E00816080936E001092A7
:1003B0008100809181008260809381008091810022
:1003C00081608093810080918000816080938000B3
:1003D0008091B10084608093B1008091B000816011
:1003E0008093B00080917A00846080937A0080913D
:1003F0007A00826080937A0080917A008160809395
:100400007A0080917A00806880937A001092C1000F
:10041000E7EBF0E02491E3EAF0E08491882399F09F
:1004200090E0880F991FFC01EA57FF4FA591B49106
:10043000FC01E057FF4F859194918FB7F894EC91B0
:10044000E22BEC938FBF80E18093810010928000BB
:1004500080E890E0909387008093860081E180930C
:10046000810083ED90E0909301018093000181E091
:1004700080936F00C0E0D0E02097F1F30E9400006D
:10048000FBCF5058BB27AA270E9459020C94AA03FD
:100490000E949C0338F00E94A30320F039F49F3F90
:1004A00019F426F40C9499030EF4E095E7FB0C94F0
:1004B0009303E92F0E94BB0358F3BA17620773072F
:1004C0008407950720F079F4A6F50C94DD030EF46B
:1004D000E0950B2EBA2FA02D0B01B90190010C0154
:1004E000CA01A0011124FF27591B99F0593F50F46C
:1004F000503E68F11A16F040A22F232F342F4427C4
:10050000585FF3CF469537952795A795F0405395BB
:10051000C9F77EF41F16BA0B620B730B840BBAF08B
:100520009150A1F0FF0FBB1F661F771F881FC2F7F6
:100530000EC0BA0F621F731F841F48F4879577950A
:100540006795B795F7959E3F08F0B0CF9395880FC4
:1005500008F09927EE0F9795879508950E94C2029B
:100560000C94AA030E94A30358F00E949C0340F03D
:1005700029F45F3F29F00C94930351110C94DE038E
:100580000C9499030E94BB0368F39923B1F355239C
:1005900091F3951B550BBB27AA2762177307840796
:1005A00038F09F5F5F4F220F331F441FAA1FA9F32C
:1005B00035D00E2E3AF0E0E832D091505040E6951A
:1005C000001CCAF72BD0FE2F29D0660F771F881F7B
:1005D000BB1F261737074807AB07B0E809F0BB0B6E
:1005E000802DBF01FF2793585F4F3AF09E3F510582
:1005F00078F00C9493030C94DE035F3FE4F3983E91
:10060000D4F3869577956795B795F7959F5FC9F76A
:10061000880F911D9695879597F90895E1E0660FEB
:10062000771F881FBB1F621773078407BA0720F064
:10063000621B730B840BBA0BEE1F88F7E0950895CD
:100640000E9427036894B1110C94DE0308950E9460
:10065000C30388F09F5798F0B92F9927B751B0F08E
:10066000E1F0660F771F881F991F1AF0BA95C9F736
:1006700014C0B13091F00E94DD03B1E008950C94F4
:10068000DD03672F782F8827B85F39F0B93FCCF3A7
:10069000869577956795B395D9F73EF490958095B3
:1006A000709561957F4F8F4F9F4F0895E89409C0D3
:1006B00097FB3EF490958095709561957F4F8F4F95
:1006C0009F4F9923A9F0F92F96E9BB279395F695AB
:1006D000879577956795B795F111F8CFFAF4BB0F29
:1006E00011F460FF1BC06F5F7F4F8F4F9F4F16C08D
:1006F000882311F096E911C0772321F09EE8872F17
:10070000762F05C0662371F096E8862F70E060E0D2
:100710002AF09A95660F771F881FDAF7880F96954B
:10072000879597F9089597F99F6780E870E060E0F2
:1007300008959FEF80EC089500240A94161617067A
:1007400018060906089500240A94121613061406C2
:1007500005060895092E0394000C11F4882352F025
:10076000BB0F40F4BF2B11F460FF04C06F5F7F4FDD
:100770008F4F9F4F089557FD9058440F551F59F0C4
:100780005F3F71F04795880F97FB991F61F09F3F7E
:1007900079F087950895121613061406551FF2CFA7
:1007A0004695F1DF08C0161617061806991FF1CFF7
:1007B00086957105610508940895E894BB2766271E
:1007C0007727CB0197F908950E94F7030C94AA03A9
:1007D0000E949C0338F00E94A30320F0952311F09F
:1007E0000C9493030C94990311240C94DE030E943F
:1007F000BB0370F3959FC1F3950F50E0551F629FA7
:10080000F001729FBB27F00DB11D639FAA27F00D69
:10081000B11DAA1F649F6627B00DA11D661F829F90
:100820002227B00DA11D621F739FB00DA11D621F75
:10083000839FA00D611D221F749F3327A00D611D92
:10084000231F849F600D211D822F762F6A2F112474
:100850009F5750409AF0F1F088234AF0EE0FFF1FA7
:10086000BB1F661F771F881F91505040A9F79E3FFE
:10087000510580F00C9493030C94DE035F3FE4F386
:10088000983ED4F3869577956795B795F795E79554
:100890009F5FC1F7FE2B880F911D9695879597F95D
:1008A00008959F930E945B040F9007FCEE5F0C94E9
:1008B00084040C9499030E94C303D8F3E894E0E005
:1008C000BB279F57F0F02AED3FE049EC06C0EE0F42
:1008D000BB0F661F771F881F28F0B23A62077307A5
:1008E000840728F0B25A620B730B840BE3959A9538
:1008F00072F7803830F49A95BB0F661F771F881FF8
:10090000D2F790480C949A04EF93E0FF07C0A2EA54
:100910002AED3FE049EC5FEB0E9459020E94AA03D6
:100920000F90039401FC9058E8E6F0E00C94A604C4
:100930009F3F31F0915020F4879577956795B79553
:10094000880F911D9695879597F908959F938F939A
:100950007F936F93FF93EF939B01AC010E94E4039D
:10096000EF91FF910E94BA042F913F914F915F91B7
:100970000C94E403DF93CF931F930F93FF92EF92B6
:10098000DF927B018C01689406C0DA2EEF010E9491
:10099000F703FE01E894A591259135914591559174
:1009A000A6F3EF010E945902FE019701A801DA9413
:1009B00069F7DF90EF90FF900F911F91CF91DF913A
:0609C0000895F894FFCF3A
:0209C600D2005D
:00000001FF
